{
  "abi": [
    {
      "inputs": [
        {
          "internalType": "address",
          "name": "_nft",
          "type": "address"
        },
        {
          "internalType": "uint256",
          "name": "_nftId",
          "type": "uint256"
        }
      ],
      "stateMutability": "nonpayable",
      "type": "constructor"
    },
    {
      "anonymous": false,
      "inputs": [
        {
          "indexed": true,
          "internalType": "address",
          "name": "bidder",
          "type": "address"
        },
        {
          "indexed": false,
          "internalType": "uint256",
          "name": "value",
          "type": "uint256"
        }
      ],
      "name": "Bid",
      "type": "event"
    },
    {
      "anonymous": false,
      "inputs": [
        {
          "indexed": false,
          "internalType": "address",
          "name": "highestBidder",
          "type": "address"
        },
        {
          "indexed": false,
          "internalType": "uint256",
          "name": "value",
          "type": "uint256"
        }
      ],
      "name": "End",
      "type": "event"
    },
    {
      "anonymous": false,
      "inputs": [
        {
          "indexed": false,
          "internalType": "uint256",
          "name": "startTime",
          "type": "uint256"
        },
        {
          "indexed": false,
          "internalType": "uint256",
          "name": "endTime",
          "type": "uint256"
        }
      ],
      "name": "Start",
      "type": "event"
    },
    {
      "anonymous": false,
      "inputs": [
        {
          "indexed": true,
          "internalType": "address",
          "name": "bidder",
          "type": "address"
        },
        {
          "indexed": false,
          "internalType": "uint256",
          "name": "value",
          "type": "uint256"
        }
      ],
      "name": "Withdraw",
      "type": "event"
    },
    {
      "inputs": [
        {
          "internalType": "address",
          "name": "",
          "type": "address"
        }
      ],
      "name": "allBids",
      "outputs": [
        {
          "internalType": "uint256",
          "name": "",
          "type": "uint256"
        }
      ],
      "stateMutability": "view",
      "type": "function"
    },
    {
      "inputs": [],
      "name": "bid",
      "outputs": [],
      "stateMutability": "payable",
      "type": "function"
    },
    {
      "inputs": [],
      "name": "end",
      "outputs": [],
      "stateMutability": "nonpayable",
      "type": "function"
    },
    {
      "inputs": [],
      "name": "endTime",
      "outputs": [
        {
          "internalType": "uint256",
          "name": "",
          "type": "uint256"
        }
      ],
      "stateMutability": "view",
      "type": "function"
    },
    {
      "inputs": [],
      "name": "ended",
      "outputs": [
        {
          "internalType": "bool",
          "name": "",
          "type": "bool"
        }
      ],
      "stateMutability": "view",
      "type": "function"
    },
    {
      "inputs": [],
      "name": "highestBid",
      "outputs": [
        {
          "internalType": "uint256",
          "name": "",
          "type": "uint256"
        }
      ],
      "stateMutability": "view",
      "type": "function"
    },
    {
      "inputs": [],
      "name": "highestBidder",
      "outputs": [
        {
          "internalType": "address",
          "name": "",
          "type": "address"
        }
      ],
      "stateMutability": "view",
      "type": "function"
    },
    {
      "inputs": [],
      "name": "nft",
      "outputs": [
        {
          "internalType": "contract IERC721",
          "name": "",
          "type": "address"
        }
      ],
      "stateMutability": "view",
      "type": "function"
    },
    {
      "inputs": [],
      "name": "nftId",
      "outputs": [
        {
          "internalType": "uint256",
          "name": "",
          "type": "uint256"
        }
      ],
      "stateMutability": "view",
      "type": "function"
    },
    {
      "inputs": [],
      "name": "owner",
      "outputs": [
        {
          "internalType": "address payable",
          "name": "",
          "type": "address"
        }
      ],
      "stateMutability": "view",
      "type": "function"
    },
    {
      "inputs": [
        {
          "internalType": "uint256",
          "name": "_openingBid",
          "type": "uint256"
        },
        {
          "internalType": "uint256",
          "name": "_duration",
          "type": "uint256"
        }
      ],
      "name": "start",
      "outputs": [],
      "stateMutability": "nonpayable",
      "type": "function"
    },
    {
      "inputs": [],
      "name": "started",
      "outputs": [
        {
          "internalType": "bool",
          "name": "",
          "type": "bool"
        }
      ],
      "stateMutability": "view",
      "type": "function"
    },
    {
      "inputs": [],
      "name": "withdraw",
      "outputs": [],
      "stateMutability": "nonpayable",
      "type": "function"
    }
  ],
  "bytecode": {
    "object": "0x60e060405234801561001057600080fd5b50604051610b01380380610b0183398101604081905261002f9161004a565b336080526001600160a01b039190911660c05260a052610084565b6000806040838503121561005d57600080fd5b82516001600160a01b038116811461007457600080fd5b6020939093015192949293505050565b60805160a05160c051610a166100eb6000396000818161016a015281816105ef0152610865015260008181610257015281816105c9015261083f0152600081816101b6015281816104b20152818161059b015281816106ad01526108d10152610a166000f3fe6080604052600436106100c25760003560e01c80638da5cb5b1161007f578063bd20160711610059578063bd20160714610218578063c6bc518214610245578063d57bde7914610279578063efbe1c1c1461028f57600080fd5b80638da5cb5b146101a45780638fb4b573146101d857806391f90157146101f857600080fd5b806312fa6feb146100c75780631998aeef146100fb5780631f2698ab146101055780633197cbb61461011f5780633ccfd60b1461014357806347ccca0214610158575b600080fd5b3480156100d357600080fd5b506000546100e690610100900460ff1681565b60405190151581526020015b60405180910390f35b6101036102a4565b005b34801561011157600080fd5b506000546100e69060ff1681565b34801561012b57600080fd5b5061013560015481565b6040519081526020016100f2565b34801561014f57600080fd5b50610103610426565b34801561016457600080fd5b5061018c7f000000000000000000000000000000000000000000000000000000000000000081565b6040516001600160a01b0390911681526020016100f2565b3480156101b057600080fd5b5061018c7f000000000000000000000000000000000000000000000000000000000000000081565b3480156101e457600080fd5b506101036101f3366004610967565b6104a7565b34801561020457600080fd5b5060035461018c906001600160a01b031681565b34801561022457600080fd5b50610135610233366004610989565b60046020526000908152604090205481565b34801561025157600080fd5b506101357f000000000000000000000000000000000000000000000000000000000000000081565b34801561028557600080fd5b5061013560025481565b34801561029b57600080fd5b506101036106a2565b60005460ff166102f55760405162461bcd60e51b8152602060048201526017602482015276105d58dd1a5bdb881a185cc81b9bdd081cdd185c9d1959604a1b60448201526064015b60405180910390fd5b600254341161035e5760405162461bcd60e51b815260206004820152602f60248201527f426964207072696365206973206c6f776572207468616e20746865206375727260448201526e195b9d081a1a59da195cdd08189a59608a1b60648201526084016102ec565b60015442106103a35760405162461bcd60e51b8152602060048201526011602482015270105d58dd1a5bdb881a185cc8195b991959607a1b60448201526064016102ec565b6002546003546001600160a01b0316600090815260046020526040812080549091906103d09084906109b9565b9091555050346002819055600380546001600160a01b03191633908117909155604051918252907fe684a55f31b79eca403df938249029212a5925ec6be8012e099b45bc1019e5d29060200160405180910390a2565b3360009081526004602052604081208054919055801561046f57604051339082156108fc029083906000818181858888f1935050505015801561046d573d6000803e3d6000fd5b505b60405181815233907f884edad9ce6fa2440d8a54cc123490eb96d2768479d49ff9c7366125a94243649060200160405180910390a250565b336001600160a01b037f0000000000000000000000000000000000000000000000000000000000000000161461051f5760405162461bcd60e51b815260206004820181905260248201527f4f6e6c79206f776e65722063616e2063616c6c207468652066756e6374696f6e60448201526064016102ec565b60005460ff16156105725760405162461bcd60e51b815260206004820152601b60248201527f41756374696f6e2068617320616c72656164792073746172746564000000000060448201526064016102ec565b600282905561058181426109b9565b6001556040516323b872dd60e01b81526001600160a01b037f0000000000000000000000000000000000000000000000000000000000000000811660048301523060248301527f000000000000000000000000000000000000000000000000000000000000000060448301527f000000000000000000000000000000000000000000000000000000000000000016906323b872dd90606401600060405180830381600087803b15801561063357600080fd5b505af1158015610647573d6000803e3d6000fd5b50506000805460ff19166001908117909155546040517f5a7d5f50ab70a39d193bf53f0fb995377776df93bb6fdcf1cd1868b7e0dd44ee93506106969250429190918252602082015260400190565b60405180910390a15050565b336001600160a01b037f0000000000000000000000000000000000000000000000000000000000000000161461071a5760405162461bcd60e51b815260206004820181905260248201527f4f6e6c79206f776e65722063616e2063616c6c207468652066756e6374696f6e60448201526064016102ec565b60005460ff166107665760405162461bcd60e51b8152602060048201526017602482015276105d58dd1a5bdb881a185cc81b9bdd081cdd185c9d1959604a1b60448201526064016102ec565b6001544210156107b05760405162461bcd60e51b8152602060048201526015602482015274105d58dd1a5bdb881a185cc81b9bdd08195b991959605a1b60448201526064016102ec565b600054610100900460ff16156108085760405162461bcd60e51b815260206004820152601960248201527f41756374696f6e2068617320616c726561647920656e6465640000000000000060448201526064016102ec565b6000805461ff0019166101001790556003546040516323b872dd60e01b81523060048201526001600160a01b0391821660248201527f000000000000000000000000000000000000000000000000000000000000000060448201527f0000000000000000000000000000000000000000000000000000000000000000909116906323b872dd90606401600060405180830381600087803b1580156108ab57600080fd5b505af11580156108bf573d6000803e3d6000fd5b50506002546040516001600160a01b037f000000000000000000000000000000000000000000000000000000000000000016935081156108fc0292506000818181858888f1935050505015801561091a573d6000803e3d6000fd5b50600354600254604080516001600160a01b03909316835260208301919091527f7d7570b046e5ead3a4f3fbc9fa2445113625a1e79823776146316bafed6b8cc5910160405180910390a1565b6000806040838503121561097a57600080fd5b50508035926020909101359150565b60006020828403121561099b57600080fd5b81356001600160a01b03811681146109b257600080fd5b9392505050565b808201808211156109da57634e487b7160e01b600052601160045260246000fd5b9291505056fea26469706673582212207fced7e5f69c58d64886f3c6720a91653cbbdeebcd2f2b24c80128f0fba5625a64736f6c63430008150033",
    "linkReferences": {}
  },
  "methodIdentifiers": {
    "allBids(address)": "bd201607",
    "bid()": "1998aeef",
    "end()": "efbe1c1c",
    "endTime()": "3197cbb6",
    "ended()": "12fa6feb",
    "highestBid()": "d57bde79",
    "highestBidder()": "91f90157",
    "nft()": "47ccca02",
    "nftId()": "c6bc5182",
    "owner()": "8da5cb5b",
    "start(uint256,uint256)": "8fb4b573",
    "started()": "1f2698ab",
    "withdraw()": "3ccfd60b"
  },
  "id": 20
}